{
	"data": {
		"bytecode": {
			"linkReferences": {},
			"object": "608060405234801562000010575f80fd5b50335f73ffffffffffffffffffffffffffffffffffffffff168173ffffffffffffffffffffffffffffffffffffffff160362000085575f6040517f1e4fbdf70000000000000000000000000000000000000000000000000000000081526004016200007c9190620001cd565b60405180910390fd5b6200009681620000c960201b60201c565b505f8060146101000a81548160ff02191690836005811115620000be57620000bd620001e8565b5b021790555062000215565b5f805f9054906101000a900473ffffffffffffffffffffffffffffffffffffffff169050815f806101000a81548173ffffffffffffffffffffffffffffffffffffffff021916908373ffffffffffffffffffffffffffffffffffffffff1602179055508173ffffffffffffffffffffffffffffffffffffffff168173ffffffffffffffffffffffffffffffffffffffff167f8be0079c531659141344cd1fd0a4f28419497f9722a3daafe3b4186f6b6457e060405160405180910390a35050565b5f73ffffffffffffffffffffffffffffffffffffffff82169050919050565b5f620001b5826200018a565b9050919050565b620001c781620001a9565b82525050565b5f602082019050620001e25f830184620001bc565b92915050565b7f4e487b71000000000000000000000000000000000000000000000000000000005f52602160045260245ffd5b611c8980620002235f395ff3fe608060405234801561000f575f80fd5b50600436106100fe575f3560e01c80638e7ea5b211610095578063c64963c511610064578063c64963c51461023b578063e09b8c7914610259578063ee74c67814610263578063f2fde38b1461026d576100fe565b80638e7ea5b2146101c3578063a1edffa2146101e1578063a3ec138d146101ff578063a7bfab1614610231576100fe565b806338db6dd3116100d157806338db6dd3146101755780636c29744514610191578063715018a61461019b5780638da5cb5b146101a5576100fe565b80630121b93f14610102578063013cf08b1461011e578063373d6d5e1461014f578063378a21781461016b575b5f80fd5b61011c600480360381019061011791906111e6565b610289565b005b610138600480360381019061013391906111e6565b61057d565b6040516101469291906112aa565b60405180910390f35b61016960048036038101906101649190611404565b610632565b005b6101736107d7565b005b61018f600480360381019061018a91906114a5565b61093b565b005b610199610ae2565b005b6101a3610bc8565b005b6101ad610bdb565b6040516101ba91906114df565b60405180910390f35b6101cb610c02565b6040516101d891906114f8565b60405180910390f35b6101e9610cc9565b6040516101f69190611584565b60405180910390f35b610219600480360381019061021491906114a5565b610cdb565b604051610228939291906115b7565b60405180910390f35b610239610d19565b005b610243610dff565b60405161025091906114f8565b60405180910390f35b610261610e05565b005b61026b610ee9565b005b610287600480360381019061028291906114a5565b610fcf565b005b60025f3373ffffffffffffffffffffffffffffffffffffffff1673ffffffffffffffffffffffffffffffffffffffff1681526020019081526020015f205f015f9054906101000a900460ff16610314576040517f08c379a000000000000000000000000000000000000000000000000000000000815260040161030b90611636565b60405180910390fd5b600380600581111561032957610328611511565b5b5f60149054906101000a900460ff16600581111561034a57610349611511565b5b1461038a576040517f08c379a00000000000000000000000000000000000000000000000000000000081526004016103819061169e565b60405180910390fd5b60025f3373ffffffffffffffffffffffffffffffffffffffff1673ffffffffffffffffffffffffffffffffffffffff1681526020019081526020015f205f0160019054906101000a900460ff1615610417576040517f08c379a000000000000000000000000000000000000000000000000000000000815260040161040e90611706565b60405180910390fd5b600380549050821061045e576040517f08c379a00000000000000000000000000000000000000000000000000000000081526004016104559061176e565b60405180910390fd5b600160025f3373ffffffffffffffffffffffffffffffffffffffff1673ffffffffffffffffffffffffffffffffffffffff1681526020019081526020015f205f0160016101000a81548160ff0219169083151502179055508160025f3373ffffffffffffffffffffffffffffffffffffffff1673ffffffffffffffffffffffffffffffffffffffff1681526020019081526020015f20600101819055506001600383815481106105115761051061178c565b5b905f5260205f2090600202016001015f82825461052e91906117e6565b92505081905550813373ffffffffffffffffffffffffffffffffffffffff167f4d99b957a2bc29a30ebd96a7be8e68fe50a3c701db28a91436490b7d53870ca460405160405180910390a35050565b6003818154811061058c575f80fd5b905f5260205f2090600202015f91509050805f0180546105ab90611846565b80601f01602080910402602001604051908101604052809291908181526020018280546105d790611846565b80156106225780601f106105f957610100808354040283529160200191610622565b820191905f5260205f20905b81548152906001019060200180831161060557829003601f168201915b5050505050908060010154905082565b60025f3373ffffffffffffffffffffffffffffffffffffffff1673ffffffffffffffffffffffffffffffffffffffff1681526020019081526020015f205f015f9054906101000a900460ff166106bd576040517f08c379a00000000000000000000000000000000000000000000000000000000081526004016106b490611636565b60405180910390fd5b60018060058111156106d2576106d1611511565b5b5f60149054906101000a900460ff1660058111156106f3576106f2611511565b5b14610733576040517f08c379a000000000000000000000000000000000000000000000000000000000815260040161072a9061169e565b60405180910390fd5b600360405180604001604052808481526020015f815250908060018154018082558091505060019003905f5260205f2090600202015f909190919091505f820151815f0190816107839190611a13565b506020820151816001015550505f60016003805490506107a39190611ae2565b9050807f92e393e9b54e2f801d3ea4beb0c5e71a21cc34a5d34b77d0fb8a3aa1650dc18f60405160405180910390a2505050565b6107df611053565b60048060058111156107f4576107f3611511565b5b5f60149054906101000a900460ff16600581111561081557610814611511565b5b14610855576040517f08c379a000000000000000000000000000000000000000000000000000000000815260040161084c9061169e565b60405180910390fd5b60055f60146101000a81548160ff0219169083600581111561087a57610879611511565b5b02179055507f0a97a4ee45751e2abf3e4fc8946939630b11b371ea8ae39ccdc3056e98f5cc3f600460056040516108b2929190611b15565b60405180910390a15f805b6003805490508110156109365781600382815481106108df576108de61178c565b5b905f5260205f20906002020160010154111561092357600381815481106109095761090861178c565b5b905f5260205f209060020201600101549150806001819055505b808061092e90611b3c565b9150506108bd565b505050565b610943611053565b5f80600581111561095757610956611511565b5b5f60149054906101000a900460ff16600581111561097857610977611511565b5b146109b8576040517f08c379a00000000000000000000000000000000000000000000000000000000081526004016109af9061169e565b60405180910390fd5b60025f8373ffffffffffffffffffffffffffffffffffffffff1673ffffffffffffffffffffffffffffffffffffffff1681526020019081526020015f205f015f9054906101000a900460ff1615610a44576040517f08c379a0000000000000000000000000000000000000000000000000000000008152600401610a3b90611bcd565b60405180910390fd5b600160025f8473ffffffffffffffffffffffffffffffffffffffff1673ffffffffffffffffffffffffffffffffffffffff1681526020019081526020015f205f015f6101000a81548160ff0219169083151502179055508173ffffffffffffffffffffffffffffffffffffffff167fb6be2187d059cc2a55fe29e0e503b566e1e0f8c8780096e185429350acffd3dd60405160405180910390a25050565b610aea611053565b6001806005811115610aff57610afe611511565b5b5f60149054906101000a900460ff166005811115610b2057610b1f611511565b5b14610b60576040517f08c379a0000000000000000000000000000000000000000000000000000000008152600401610b579061169e565b60405180910390fd5b60025f60146101000a81548160ff02191690836005811115610b8557610b84611511565b5b02179055507f0a97a4ee45751e2abf3e4fc8946939630b11b371ea8ae39ccdc3056e98f5cc3f60016002604051610bbd929190611b15565b60405180910390a150565b610bd0611053565b610bd95f6110da565b565b5f805f9054906101000a900473ffffffffffffffffffffffffffffffffffffffff16905090565b5f6005806005811115610c1857610c17611511565b5b5f60149054906101000a900460ff166005811115610c3957610c38611511565b5b14610c79576040517f08c379a0000000000000000000000000000000000000000000000000000000008152600401610c709061169e565b60405180910390fd5b5f60038054905011610cc0576040517f08c379a0000000000000000000000000000000000000000000000000000000008152600401610cb790611c35565b60405180910390fd5b60015491505090565b5f60149054906101000a900460ff1681565b6002602052805f5260405f205f91509050805f015f9054906101000a900460ff1690805f0160019054906101000a900460ff16908060010154905083565b610d21611053565b6003806005811115610d3657610d35611511565b5b5f60149054906101000a900460ff166005811115610d5757610d56611511565b5b14610d97576040517f08c379a0000000000000000000000000000000000000000000000000000000008152600401610d8e9061169e565b60405180910390fd5b60045f60146101000a81548160ff02191690836005811115610dbc57610dbb611511565b5b02179055507f0a97a4ee45751e2abf3e4fc8946939630b11b371ea8ae39ccdc3056e98f5cc3f60036004604051610df4929190611b15565b60405180910390a150565b60015481565b610e0d611053565b5f806005811115610e2157610e20611511565b5b5f60149054906101000a900460ff166005811115610e4257610e41611511565b5b14610e82576040517f08c379a0000000000000000000000000000000000000000000000000000000008152600401610e799061169e565b60405180910390fd5b60015f60146101000a81548160ff02191690836005811115610ea757610ea6611511565b5b02179055507f0a97a4ee45751e2abf3e4fc8946939630b11b371ea8ae39ccdc3056e98f5cc3f5f6001604051610ede929190611b15565b60405180910390a150565b610ef1611053565b6002806005811115610f0657610f05611511565b5b5f60149054906101000a900460ff166005811115610f2757610f26611511565b5b14610f67576040517f08c379a0000000000000000000000000000000000000000000000000000000008152600401610f5e9061169e565b60405180910390fd5b60035f60146101000a81548160ff02191690836005811115610f8c57610f8b611511565b5b02179055507f0a97a4ee45751e2abf3e4fc8946939630b11b371ea8ae39ccdc3056e98f5cc3f60026003604051610fc4929190611b15565b60405180910390a150565b610fd7611053565b5f73ffffffffffffffffffffffffffffffffffffffff168173ffffffffffffffffffffffffffffffffffffffff1603611047575f6040517f1e4fbdf700000000000000000000000000000000000000000000000000000000815260040161103e91906114df565b60405180910390fd5b611050816110da565b50565b61105b61119b565b73ffffffffffffffffffffffffffffffffffffffff16611079610bdb565b73ffffffffffffffffffffffffffffffffffffffff16146110d85761109c61119b565b6040517f118cdaa70000000000000000000000000000000000000000000000000000000081526004016110cf91906114df565b60405180910390fd5b565b5f805f9054906101000a900473ffffffffffffffffffffffffffffffffffffffff169050815f806101000a81548173ffffffffffffffffffffffffffffffffffffffff021916908373ffffffffffffffffffffffffffffffffffffffff1602179055508173ffffffffffffffffffffffffffffffffffffffff168173ffffffffffffffffffffffffffffffffffffffff167f8be0079c531659141344cd1fd0a4f28419497f9722a3daafe3b4186f6b6457e060405160405180910390a35050565b5f33905090565b5f604051905090565b5f80fd5b5f80fd5b5f819050919050565b6111c5816111b3565b81146111cf575f80fd5b50565b5f813590506111e0816111bc565b92915050565b5f602082840312156111fb576111fa6111ab565b5b5f611208848285016111d2565b91505092915050565b5f81519050919050565b5f82825260208201905092915050565b5f5b8381101561124857808201518184015260208101905061122d565b5f8484015250505050565b5f601f19601f8301169050919050565b5f61126d82611211565b611277818561121b565b935061128781856020860161122b565b61129081611253565b840191505092915050565b6112a4816111b3565b82525050565b5f6040820190508181035f8301526112c28185611263565b90506112d1602083018461129b565b9392505050565b5f80fd5b5f80fd5b7f4e487b71000000000000000000000000000000000000000000000000000000005f52604160045260245ffd5b61131682611253565b810181811067ffffffffffffffff82111715611335576113346112e0565b5b80604052505050565b5f6113476111a2565b9050611353828261130d565b919050565b5f67ffffffffffffffff821115611372576113716112e0565b5b61137b82611253565b9050602081019050919050565b828183375f83830152505050565b5f6113a86113a384611358565b61133e565b9050828152602081018484840111156113c4576113c36112dc565b5b6113cf848285611388565b509392505050565b5f82601f8301126113eb576113ea6112d8565b5b81356113fb848260208601611396565b91505092915050565b5f60208284031215611419576114186111ab565b5b5f82013567ffffffffffffffff811115611436576114356111af565b5b611442848285016113d7565b91505092915050565b5f73ffffffffffffffffffffffffffffffffffffffff82169050919050565b5f6114748261144b565b9050919050565b6114848161146a565b811461148e575f80fd5b50565b5f8135905061149f8161147b565b92915050565b5f602082840312156114ba576114b96111ab565b5b5f6114c784828501611491565b91505092915050565b6114d98161146a565b82525050565b5f6020820190506114f25f8301846114d0565b92915050565b5f60208201905061150b5f83018461129b565b92915050565b7f4e487b71000000000000000000000000000000000000000000000000000000005f52602160045260245ffd5b6006811061154f5761154e611511565b5b50565b5f81905061155f8261153e565b919050565b5f61156e82611552565b9050919050565b61157e81611564565b82525050565b5f6020820190506115975f830184611575565b92915050565b5f8115159050919050565b6115b18161159d565b82525050565b5f6060820190506115ca5f8301866115a8565b6115d760208301856115a8565b6115e4604083018461129b565b949350505050565b7f596f7520617265206e6f742061207265676973746572656420766f74657200005f82015250565b5f611620601e8361121b565b915061162b826115ec565b602082019050919050565b5f6020820190508181035f83015261164d81611614565b9050919050565b7f496e76616c696420776f726b666c6f77207374617465000000000000000000005f82015250565b5f61168860168361121b565b915061169382611654565b602082019050919050565b5f6020820190508181035f8301526116b58161167c565b9050919050565b7f596f75206861766520616c726561647920766f746564000000000000000000005f82015250565b5f6116f060168361121b565b91506116fb826116bc565b602082019050919050565b5f6020820190508181035f83015261171d816116e4565b9050919050565b7f496e76616c69642070726f706f73616c204944000000000000000000000000005f82015250565b5f61175860138361121b565b915061176382611724565b602082019050919050565b5f6020820190508181035f8301526117858161174c565b9050919050565b7f4e487b71000000000000000000000000000000000000000000000000000000005f52603260045260245ffd5b7f4e487b71000000000000000000000000000000000000000000000000000000005f52601160045260245ffd5b5f6117f0826111b3565b91506117fb836111b3565b9250828201905080821115611813576118126117b9565b5b92915050565b7f4e487b71000000000000000000000000000000000000000000000000000000005f52602260045260245ffd5b5f600282049050600182168061185d57607f821691505b6020821081036118705761186f611819565b5b50919050565b5f819050815f5260205f209050919050565b5f6020601f8301049050919050565b5f82821b905092915050565b5f600883026118d27fffffffffffffffffffffffffffffffffffffffffffffffffffffffffffffffff82611897565b6118dc8683611897565b95508019841693508086168417925050509392505050565b5f819050919050565b5f61191761191261190d846111b3565b6118f4565b6111b3565b9050919050565b5f819050919050565b611930836118fd565b61194461193c8261191e565b8484546118a3565b825550505050565b5f90565b61195861194c565b611963818484611927565b505050565b5b818110156119865761197b5f82611950565b600181019050611969565b5050565b601f8211156119cb5761199c81611876565b6119a584611888565b810160208510156119b4578190505b6119c86119c085611888565b830182611968565b50505b505050565b5f82821c905092915050565b5f6119eb5f19846008026119d0565b1980831691505092915050565b5f611a0383836119dc565b9150826002028217905092915050565b611a1c82611211565b67ffffffffffffffff811115611a3557611a346112e0565b5b611a3f8254611846565b611a4a82828561198a565b5f60209050601f831160018114611a7b575f8415611a69578287015190505b611a7385826119f8565b865550611ada565b601f198416611a8986611876565b5f5b82811015611ab057848901518255600182019150602085019450602081019050611a8b565b86831015611acd5784890151611ac9601f8916826119dc565b8355505b6001600288020188555050505b505050505050565b5f611aec826111b3565b9150611af7836111b3565b9250828203905081811115611b0f57611b0e6117b9565b5b92915050565b5f604082019050611b285f830185611575565b611b356020830184611575565b9392505050565b5f611b46826111b3565b91507fffffffffffffffffffffffffffffffffffffffffffffffffffffffffffffffff8203611b7857611b776117b9565b5b600182019050919050565b7f566f74657220616c7265616479207265676973746572656400000000000000005f82015250565b5f611bb760188361121b565b9150611bc282611b83565b602082019050919050565b5f6020820190508181035f830152611be481611bab565b9050919050565b7f4e6f2070726f706f73616c7320617661696c61626c65000000000000000000005f82015250565b5f611c1f60168361121b565b9150611c2a82611beb565b602082019050919050565b5f6020820190508181035f830152611c4c81611c13565b905091905056fea264697066735822122027b49d8eaf8120e6eaaa3d5027b416c2500ce900e739f79a331216aeb90d3c9c64736f6c63430008150033",
			"opcodes": "PUSH1 0x80 PUSH1 0x40 MSTORE CALLVALUE DUP1 ISZERO PUSH3 0x10 JUMPI PUSH0 DUP1 REVERT JUMPDEST POP CALLER PUSH0 PUSH20 0xFFFFFFFFFFFFFFFFFFFFFFFFFFFFFFFFFFFFFFFF AND DUP2 PUSH20 0xFFFFFFFFFFFFFFFFFFFFFFFFFFFFFFFFFFFFFFFF AND SUB PUSH3 0x85 JUMPI PUSH0 PUSH1 0x40 MLOAD PUSH32 0x1E4FBDF700000000000000000000000000000000000000000000000000000000 DUP2 MSTORE PUSH1 0x4 ADD PUSH3 0x7C SWAP2 SWAP1 PUSH3 0x1CD JUMP JUMPDEST PUSH1 0x40 MLOAD DUP1 SWAP2 SUB SWAP1 REVERT JUMPDEST PUSH3 0x96 DUP2 PUSH3 0xC9 PUSH1 0x20 SHL PUSH1 0x20 SHR JUMP JUMPDEST POP PUSH0 DUP1 PUSH1 0x14 PUSH2 0x100 EXP DUP2 SLOAD DUP2 PUSH1 0xFF MUL NOT AND SWAP1 DUP4 PUSH1 0x5 DUP2 GT ISZERO PUSH3 0xBE JUMPI PUSH3 0xBD PUSH3 0x1E8 JUMP JUMPDEST JUMPDEST MUL OR SWAP1 SSTORE POP PUSH3 0x215 JUMP JUMPDEST PUSH0 DUP1 PUSH0 SWAP1 SLOAD SWAP1 PUSH2 0x100 EXP SWAP1 DIV PUSH20 0xFFFFFFFFFFFFFFFFFFFFFFFFFFFFFFFFFFFFFFFF AND SWAP1 POP DUP2 PUSH0 DUP1 PUSH2 0x100 EXP DUP2 SLOAD DUP2 PUSH20 0xFFFFFFFFFFFFFFFFFFFFFFFFFFFFFFFFFFFFFFFF MUL NOT AND SWAP1 DUP4 PUSH20 0xFFFFFFFFFFFFFFFFFFFFFFFFFFFFFFFFFFFFFFFF AND MUL OR SWAP1 SSTORE POP DUP2 PUSH20 0xFFFFFFFFFFFFFFFFFFFFFFFFFFFFFFFFFFFFFFFF AND DUP2 PUSH20 0xFFFFFFFFFFFFFFFFFFFFFFFFFFFFFFFFFFFFFFFF AND PUSH32 0x8BE0079C531659141344CD1FD0A4F28419497F9722A3DAAFE3B4186F6B6457E0 PUSH1 0x40 MLOAD PUSH1 0x40 MLOAD DUP1 SWAP2 SUB SWAP1 LOG3 POP POP JUMP JUMPDEST PUSH0 PUSH20 0xFFFFFFFFFFFFFFFFFFFFFFFFFFFFFFFFFFFFFFFF DUP3 AND SWAP1 POP SWAP2 SWAP1 POP JUMP JUMPDEST PUSH0 PUSH3 0x1B5 DUP3 PUSH3 0x18A JUMP JUMPDEST SWAP1 POP SWAP2 SWAP1 POP JUMP JUMPDEST PUSH3 0x1C7 DUP2 PUSH3 0x1A9 JUMP JUMPDEST DUP3 MSTORE POP POP JUMP JUMPDEST PUSH0 PUSH1 0x20 DUP3 ADD SWAP1 POP PUSH3 0x1E2 PUSH0 DUP4 ADD DUP5 PUSH3 0x1BC JUMP JUMPDEST SWAP3 SWAP2 POP POP JUMP JUMPDEST PUSH32 0x4E487B7100000000000000000000000000000000000000000000000000000000 PUSH0 MSTORE PUSH1 0x21 PUSH1 0x4 MSTORE PUSH1 0x24 PUSH0 REVERT JUMPDEST PUSH2 0x1C89 DUP1 PUSH3 0x223 PUSH0 CODECOPY PUSH0 RETURN INVALID PUSH1 0x80 PUSH1 0x40 MSTORE CALLVALUE DUP1 ISZERO PUSH2 0xF JUMPI PUSH0 DUP1 REVERT JUMPDEST POP PUSH1 0x4 CALLDATASIZE LT PUSH2 0xFE JUMPI PUSH0 CALLDATALOAD PUSH1 0xE0 SHR DUP1 PUSH4 0x8E7EA5B2 GT PUSH2 0x95 JUMPI DUP1 PUSH4 0xC64963C5 GT PUSH2 0x64 JUMPI DUP1 PUSH4 0xC64963C5 EQ PUSH2 0x23B JUMPI DUP1 PUSH4 0xE09B8C79 EQ PUSH2 0x259 JUMPI DUP1 PUSH4 0xEE74C678 EQ PUSH2 0x263 JUMPI DUP1 PUSH4 0xF2FDE38B EQ PUSH2 0x26D JUMPI PUSH2 0xFE JUMP JUMPDEST DUP1 PUSH4 0x8E7EA5B2 EQ PUSH2 0x1C3 JUMPI DUP1 PUSH4 0xA1EDFFA2 EQ PUSH2 0x1E1 JUMPI DUP1 PUSH4 0xA3EC138D EQ PUSH2 0x1FF JUMPI DUP1 PUSH4 0xA7BFAB16 EQ PUSH2 0x231 JUMPI PUSH2 0xFE JUMP JUMPDEST DUP1 PUSH4 0x38DB6DD3 GT PUSH2 0xD1 JUMPI DUP1 PUSH4 0x38DB6DD3 EQ PUSH2 0x175 JUMPI DUP1 PUSH4 0x6C297445 EQ PUSH2 0x191 JUMPI DUP1 PUSH4 0x715018A6 EQ PUSH2 0x19B JUMPI DUP1 PUSH4 0x8DA5CB5B EQ PUSH2 0x1A5 JUMPI PUSH2 0xFE JUMP JUMPDEST DUP1 PUSH4 0x121B93F EQ PUSH2 0x102 JUMPI DUP1 PUSH4 0x13CF08B EQ PUSH2 0x11E JUMPI DUP1 PUSH4 0x373D6D5E EQ PUSH2 0x14F JUMPI DUP1 PUSH4 0x378A2178 EQ PUSH2 0x16B JUMPI JUMPDEST PUSH0 DUP1 REVERT JUMPDEST PUSH2 0x11C PUSH1 0x4 DUP1 CALLDATASIZE SUB DUP2 ADD SWAP1 PUSH2 0x117 SWAP2 SWAP1 PUSH2 0x11E6 JUMP JUMPDEST PUSH2 0x289 JUMP JUMPDEST STOP JUMPDEST PUSH2 0x138 PUSH1 0x4 DUP1 CALLDATASIZE SUB DUP2 ADD SWAP1 PUSH2 0x133 SWAP2 SWAP1 PUSH2 0x11E6 JUMP JUMPDEST PUSH2 0x57D JUMP JUMPDEST PUSH1 0x40 MLOAD PUSH2 0x146 SWAP3 SWAP2 SWAP1 PUSH2 0x12AA JUMP JUMPDEST PUSH1 0x40 MLOAD DUP1 SWAP2 SUB SWAP1 RETURN JUMPDEST PUSH2 0x169 PUSH1 0x4 DUP1 CALLDATASIZE SUB DUP2 ADD SWAP1 PUSH2 0x164 SWAP2 SWAP1 PUSH2 0x1404 JUMP JUMPDEST PUSH2 0x632 JUMP JUMPDEST STOP JUMPDEST PUSH2 0x173 PUSH2 0x7D7 JUMP JUMPDEST STOP JUMPDEST PUSH2 0x18F PUSH1 0x4 DUP1 CALLDATASIZE SUB DUP2 ADD SWAP1 PUSH2 0x18A SWAP2 SWAP1 PUSH2 0x14A5 JUMP JUMPDEST PUSH2 0x93B JUMP JUMPDEST STOP JUMPDEST PUSH2 0x199 PUSH2 0xAE2 JUMP JUMPDEST STOP JUMPDEST PUSH2 0x1A3 PUSH2 0xBC8 JUMP JUMPDEST STOP JUMPDEST PUSH2 0x1AD PUSH2 0xBDB JUMP JUMPDEST PUSH1 0x40 MLOAD PUSH2 0x1BA SWAP2 SWAP1 PUSH2 0x14DF JUMP JUMPDEST PUSH1 0x40 MLOAD DUP1 SWAP2 SUB SWAP1 RETURN JUMPDEST PUSH2 0x1CB PUSH2 0xC02 JUMP JUMPDEST PUSH1 0x40 MLOAD PUSH2 0x1D8 SWAP2 SWAP1 PUSH2 0x14F8 JUMP JUMPDEST PUSH1 0x40 MLOAD DUP1 SWAP2 SUB SWAP1 RETURN JUMPDEST PUSH2 0x1E9 PUSH2 0xCC9 JUMP JUMPDEST PUSH1 0x40 MLOAD PUSH2 0x1F6 SWAP2 SWAP1 PUSH2 0x1584 JUMP JUMPDEST PUSH1 0x40 MLOAD DUP1 SWAP2 SUB SWAP1 RETURN JUMPDEST PUSH2 0x219 PUSH1 0x4 DUP1 CALLDATASIZE SUB DUP2 ADD SWAP1 PUSH2 0x214 SWAP2 SWAP1 PUSH2 0x14A5 JUMP JUMPDEST PUSH2 0xCDB JUMP JUMPDEST PUSH1 0x40 MLOAD PUSH2 0x228 SWAP4 SWAP3 SWAP2 SWAP1 PUSH2 0x15B7 JUMP JUMPDEST PUSH1 0x40 MLOAD DUP1 SWAP2 SUB SWAP1 RETURN JUMPDEST PUSH2 0x239 PUSH2 0xD19 JUMP JUMPDEST STOP JUMPDEST PUSH2 0x243 PUSH2 0xDFF JUMP JUMPDEST PUSH1 0x40 MLOAD PUSH2 0x250 SWAP2 SWAP1 PUSH2 0x14F8 JUMP JUMPDEST PUSH1 0x40 MLOAD DUP1 SWAP2 SUB SWAP1 RETURN JUMPDEST PUSH2 0x261 PUSH2 0xE05 JUMP JUMPDEST STOP JUMPDEST PUSH2 0x26B PUSH2 0xEE9 JUMP JUMPDEST STOP JUMPDEST PUSH2 0x287 PUSH1 0x4 DUP1 CALLDATASIZE SUB DUP2 ADD SWAP1 PUSH2 0x282 SWAP2 SWAP1 PUSH2 0x14A5 JUMP JUMPDEST PUSH2 0xFCF JUMP JUMPDEST STOP JUMPDEST PUSH1 0x2 PUSH0 CALLER PUSH20 0xFFFFFFFFFFFFFFFFFFFFFFFFFFFFFFFFFFFFFFFF AND PUSH20 0xFFFFFFFFFFFFFFFFFFFFFFFFFFFFFFFFFFFFFFFF AND DUP2 MSTORE PUSH1 0x20 ADD SWAP1 DUP2 MSTORE PUSH1 0x20 ADD PUSH0 KECCAK256 PUSH0 ADD PUSH0 SWAP1 SLOAD SWAP1 PUSH2 0x100 EXP SWAP1 DIV PUSH1 0xFF AND PUSH2 0x314 JUMPI PUSH1 0x40 MLOAD PUSH32 0x8C379A000000000000000000000000000000000000000000000000000000000 DUP2 MSTORE PUSH1 0x4 ADD PUSH2 0x30B SWAP1 PUSH2 0x1636 JUMP JUMPDEST PUSH1 0x40 MLOAD DUP1 SWAP2 SUB SWAP1 REVERT JUMPDEST PUSH1 0x3 DUP1 PUSH1 0x5 DUP2 GT ISZERO PUSH2 0x329 JUMPI PUSH2 0x328 PUSH2 0x1511 JUMP JUMPDEST JUMPDEST PUSH0 PUSH1 0x14 SWAP1 SLOAD SWAP1 PUSH2 0x100 EXP SWAP1 DIV PUSH1 0xFF AND PUSH1 0x5 DUP2 GT ISZERO PUSH2 0x34A JUMPI PUSH2 0x349 PUSH2 0x1511 JUMP JUMPDEST JUMPDEST EQ PUSH2 0x38A JUMPI PUSH1 0x40 MLOAD PUSH32 0x8C379A000000000000000000000000000000000000000000000000000000000 DUP2 MSTORE PUSH1 0x4 ADD PUSH2 0x381 SWAP1 PUSH2 0x169E JUMP JUMPDEST PUSH1 0x40 MLOAD DUP1 SWAP2 SUB SWAP1 REVERT JUMPDEST PUSH1 0x2 PUSH0 CALLER PUSH20 0xFFFFFFFFFFFFFFFFFFFFFFFFFFFFFFFFFFFFFFFF AND PUSH20 0xFFFFFFFFFFFFFFFFFFFFFFFFFFFFFFFFFFFFFFFF AND DUP2 MSTORE PUSH1 0x20 ADD SWAP1 DUP2 MSTORE PUSH1 0x20 ADD PUSH0 KECCAK256 PUSH0 ADD PUSH1 0x1 SWAP1 SLOAD SWAP1 PUSH2 0x100 EXP SWAP1 DIV PUSH1 0xFF AND ISZERO PUSH2 0x417 JUMPI PUSH1 0x40 MLOAD PUSH32 0x8C379A000000000000000000000000000000000000000000000000000000000 DUP2 MSTORE PUSH1 0x4 ADD PUSH2 0x40E SWAP1 PUSH2 0x1706 JUMP JUMPDEST PUSH1 0x40 MLOAD DUP1 SWAP2 SUB SWAP1 REVERT JUMPDEST PUSH1 0x3 DUP1 SLOAD SWAP1 POP DUP3 LT PUSH2 0x45E JUMPI PUSH1 0x40 MLOAD PUSH32 0x8C379A000000000000000000000000000000000000000000000000000000000 DUP2 MSTORE PUSH1 0x4 ADD PUSH2 0x455 SWAP1 PUSH2 0x176E JUMP JUMPDEST PUSH1 0x40 MLOAD DUP1 SWAP2 SUB SWAP1 REVERT JUMPDEST PUSH1 0x1 PUSH1 0x2 PUSH0 CALLER PUSH20 0xFFFFFFFFFFFFFFFFFFFFFFFFFFFFFFFFFFFFFFFF AND PUSH20 0xFFFFFFFFFFFFFFFFFFFFFFFFFFFFFFFFFFFFFFFF AND DUP2 MSTORE PUSH1 0x20 ADD SWAP1 DUP2 MSTORE PUSH1 0x20 ADD PUSH0 KECCAK256 PUSH0 ADD PUSH1 0x1 PUSH2 0x100 EXP DUP2 SLOAD DUP2 PUSH1 0xFF MUL NOT AND SWAP1 DUP4 ISZERO ISZERO MUL OR SWAP1 SSTORE POP DUP2 PUSH1 0x2 PUSH0 CALLER PUSH20 0xFFFFFFFFFFFFFFFFFFFFFFFFFFFFFFFFFFFFFFFF AND PUSH20 0xFFFFFFFFFFFFFFFFFFFFFFFFFFFFFFFFFFFFFFFF AND DUP2 MSTORE PUSH1 0x20 ADD SWAP1 DUP2 MSTORE PUSH1 0x20 ADD PUSH0 KECCAK256 PUSH1 0x1 ADD DUP2 SWAP1 SSTORE POP PUSH1 0x1 PUSH1 0x3 DUP4 DUP2 SLOAD DUP2 LT PUSH2 0x511 JUMPI PUSH2 0x510 PUSH2 0x178C JUMP JUMPDEST JUMPDEST SWAP1 PUSH0 MSTORE PUSH1 0x20 PUSH0 KECCAK256 SWAP1 PUSH1 0x2 MUL ADD PUSH1 0x1 ADD PUSH0 DUP3 DUP3 SLOAD PUSH2 0x52E SWAP2 SWAP1 PUSH2 0x17E6 JUMP JUMPDEST SWAP3 POP POP DUP2 SWAP1 SSTORE POP DUP2 CALLER PUSH20 0xFFFFFFFFFFFFFFFFFFFFFFFFFFFFFFFFFFFFFFFF AND PUSH32 0x4D99B957A2BC29A30EBD96A7BE8E68FE50A3C701DB28A91436490B7D53870CA4 PUSH1 0x40 MLOAD PUSH1 0x40 MLOAD DUP1 SWAP2 SUB SWAP1 LOG3 POP POP JUMP JUMPDEST PUSH1 0x3 DUP2 DUP2 SLOAD DUP2 LT PUSH2 0x58C JUMPI PUSH0 DUP1 REVERT JUMPDEST SWAP1 PUSH0 MSTORE PUSH1 0x20 PUSH0 KECCAK256 SWAP1 PUSH1 0x2 MUL ADD PUSH0 SWAP2 POP SWAP1 POP DUP1 PUSH0 ADD DUP1 SLOAD PUSH2 0x5AB SWAP1 PUSH2 0x1846 JUMP JUMPDEST DUP1 PUSH1 0x1F ADD PUSH1 0x20 DUP1 SWAP2 DIV MUL PUSH1 0x20 ADD PUSH1 0x40 MLOAD SWAP1 DUP2 ADD PUSH1 0x40 MSTORE DUP1 SWAP3 SWAP2 SWAP1 DUP2 DUP2 MSTORE PUSH1 0x20 ADD DUP3 DUP1 SLOAD PUSH2 0x5D7 SWAP1 PUSH2 0x1846 JUMP JUMPDEST DUP1 ISZERO PUSH2 0x622 JUMPI DUP1 PUSH1 0x1F LT PUSH2 0x5F9 JUMPI PUSH2 0x100 DUP1 DUP4 SLOAD DIV MUL DUP4 MSTORE SWAP2 PUSH1 0x20 ADD SWAP2 PUSH2 0x622 JUMP JUMPDEST DUP3 ADD SWAP2 SWAP1 PUSH0 MSTORE PUSH1 0x20 PUSH0 KECCAK256 SWAP1 JUMPDEST DUP2 SLOAD DUP2 MSTORE SWAP1 PUSH1 0x1 ADD SWAP1 PUSH1 0x20 ADD DUP1 DUP4 GT PUSH2 0x605 JUMPI DUP3 SWAP1 SUB PUSH1 0x1F AND DUP3 ADD SWAP2 JUMPDEST POP POP POP POP POP SWAP1 DUP1 PUSH1 0x1 ADD SLOAD SWAP1 POP DUP3 JUMP JUMPDEST PUSH1 0x2 PUSH0 CALLER PUSH20 0xFFFFFFFFFFFFFFFFFFFFFFFFFFFFFFFFFFFFFFFF AND PUSH20 0xFFFFFFFFFFFFFFFFFFFFFFFFFFFFFFFFFFFFFFFF AND DUP2 MSTORE PUSH1 0x20 ADD SWAP1 DUP2 MSTORE PUSH1 0x20 ADD PUSH0 KECCAK256 PUSH0 ADD PUSH0 SWAP1 SLOAD SWAP1 PUSH2 0x100 EXP SWAP1 DIV PUSH1 0xFF AND PUSH2 0x6BD JUMPI PUSH1 0x40 MLOAD PUSH32 0x8C379A000000000000000000000000000000000000000000000000000000000 DUP2 MSTORE PUSH1 0x4 ADD PUSH2 0x6B4 SWAP1 PUSH2 0x1636 JUMP JUMPDEST PUSH1 0x40 MLOAD DUP1 SWAP2 SUB SWAP1 REVERT JUMPDEST PUSH1 0x1 DUP1 PUSH1 0x5 DUP2 GT ISZERO PUSH2 0x6D2 JUMPI PUSH2 0x6D1 PUSH2 0x1511 JUMP JUMPDEST JUMPDEST PUSH0 PUSH1 0x14 SWAP1 SLOAD SWAP1 PUSH2 0x100 EXP SWAP1 DIV PUSH1 0xFF AND PUSH1 0x5 DUP2 GT ISZERO PUSH2 0x6F3 JUMPI PUSH2 0x6F2 PUSH2 0x1511 JUMP JUMPDEST JUMPDEST EQ PUSH2 0x733 JUMPI PUSH1 0x40 MLOAD PUSH32 0x8C379A000000000000000000000000000000000000000000000000000000000 DUP2 MSTORE PUSH1 0x4 ADD PUSH2 0x72A SWAP1 PUSH2 0x169E JUMP JUMPDEST PUSH1 0x40 MLOAD DUP1 SWAP2 SUB SWAP1 REVERT JUMPDEST PUSH1 0x3 PUSH1 0x40 MLOAD DUP1 PUSH1 0x40 ADD PUSH1 0x40 MSTORE DUP1 DUP5 DUP2 MSTORE PUSH1 0x20 ADD PUSH0 DUP2 MSTORE POP SWAP1 DUP1 PUSH1 0x1 DUP2 SLOAD ADD DUP1 DUP3 SSTORE DUP1 SWAP2 POP POP PUSH1 0x1 SWAP1 SUB SWAP1 PUSH0 MSTORE PUSH1 0x20 PUSH0 KECCAK256 SWAP1 PUSH1 0x2 MUL ADD PUSH0 SWAP1 SWAP2 SWAP1 SWAP2 SWAP1 SWAP2 POP PUSH0 DUP3 ADD MLOAD DUP2 PUSH0 ADD SWAP1 DUP2 PUSH2 0x783 SWAP2 SWAP1 PUSH2 0x1A13 JUMP JUMPDEST POP PUSH1 0x20 DUP3 ADD MLOAD DUP2 PUSH1 0x1 ADD SSTORE POP POP PUSH0 PUSH1 0x1 PUSH1 0x3 DUP1 SLOAD SWAP1 POP PUSH2 0x7A3 SWAP2 SWAP1 PUSH2 0x1AE2 JUMP JUMPDEST SWAP1 POP DUP1 PUSH32 0x92E393E9B54E2F801D3EA4BEB0C5E71A21CC34A5D34B77D0FB8A3AA1650DC18F PUSH1 0x40 MLOAD PUSH1 0x40 MLOAD DUP1 SWAP2 SUB SWAP1 LOG2 POP POP POP JUMP JUMPDEST PUSH2 0x7DF PUSH2 0x1053 JUMP JUMPDEST PUSH1 0x4 DUP1 PUSH1 0x5 DUP2 GT ISZERO PUSH2 0x7F4 JUMPI PUSH2 0x7F3 PUSH2 0x1511 JUMP JUMPDEST JUMPDEST PUSH0 PUSH1 0x14 SWAP1 SLOAD SWAP1 PUSH2 0x100 EXP SWAP1 DIV PUSH1 0xFF AND PUSH1 0x5 DUP2 GT ISZERO PUSH2 0x815 JUMPI PUSH2 0x814 PUSH2 0x1511 JUMP JUMPDEST JUMPDEST EQ PUSH2 0x855 JUMPI PUSH1 0x40 MLOAD PUSH32 0x8C379A000000000000000000000000000000000000000000000000000000000 DUP2 MSTORE PUSH1 0x4 ADD PUSH2 0x84C SWAP1 PUSH2 0x169E JUMP JUMPDEST PUSH1 0x40 MLOAD DUP1 SWAP2 SUB SWAP1 REVERT JUMPDEST PUSH1 0x5 PUSH0 PUSH1 0x14 PUSH2 0x100 EXP DUP2 SLOAD DUP2 PUSH1 0xFF MUL NOT AND SWAP1 DUP4 PUSH1 0x5 DUP2 GT ISZERO PUSH2 0x87A JUMPI PUSH2 0x879 PUSH2 0x1511 JUMP JUMPDEST JUMPDEST MUL OR SWAP1 SSTORE POP PUSH32 0xA97A4EE45751E2ABF3E4FC8946939630B11B371EA8AE39CCDC3056E98F5CC3F PUSH1 0x4 PUSH1 0x5 PUSH1 0x40 MLOAD PUSH2 0x8B2 SWAP3 SWAP2 SWAP1 PUSH2 0x1B15 JUMP JUMPDEST PUSH1 0x40 MLOAD DUP1 SWAP2 SUB SWAP1 LOG1 PUSH0 DUP1 JUMPDEST PUSH1 0x3 DUP1 SLOAD SWAP1 POP DUP2 LT ISZERO PUSH2 0x936 JUMPI DUP2 PUSH1 0x3 DUP3 DUP2 SLOAD DUP2 LT PUSH2 0x8DF JUMPI PUSH2 0x8DE PUSH2 0x178C JUMP JUMPDEST JUMPDEST SWAP1 PUSH0 MSTORE PUSH1 0x20 PUSH0 KECCAK256 SWAP1 PUSH1 0x2 MUL ADD PUSH1 0x1 ADD SLOAD GT ISZERO PUSH2 0x923 JUMPI PUSH1 0x3 DUP2 DUP2 SLOAD DUP2 LT PUSH2 0x909 JUMPI PUSH2 0x908 PUSH2 0x178C JUMP JUMPDEST JUMPDEST SWAP1 PUSH0 MSTORE PUSH1 0x20 PUSH0 KECCAK256 SWAP1 PUSH1 0x2 MUL ADD PUSH1 0x1 ADD SLOAD SWAP2 POP DUP1 PUSH1 0x1 DUP2 SWAP1 SSTORE POP JUMPDEST DUP1 DUP1 PUSH2 0x92E SWAP1 PUSH2 0x1B3C JUMP JUMPDEST SWAP2 POP POP PUSH2 0x8BD JUMP JUMPDEST POP POP POP JUMP JUMPDEST PUSH2 0x943 PUSH2 0x1053 JUMP JUMPDEST PUSH0 DUP1 PUSH1 0x5 DUP2 GT ISZERO PUSH2 0x957 JUMPI PUSH2 0x956 PUSH2 0x1511 JUMP JUMPDEST JUMPDEST PUSH0 PUSH1 0x14 SWAP1 SLOAD SWAP1 PUSH2 0x100 EXP SWAP1 DIV PUSH1 0xFF AND PUSH1 0x5 DUP2 GT ISZERO PUSH2 0x978 JUMPI PUSH2 0x977 PUSH2 0x1511 JUMP JUMPDEST JUMPDEST EQ PUSH2 0x9B8 JUMPI PUSH1 0x40 MLOAD PUSH32 0x8C379A000000000000000000000000000000000000000000000000000000000 DUP2 MSTORE PUSH1 0x4 ADD PUSH2 0x9AF SWAP1 PUSH2 0x169E JUMP JUMPDEST PUSH1 0x40 MLOAD DUP1 SWAP2 SUB SWAP1 REVERT JUMPDEST PUSH1 0x2 PUSH0 DUP4 PUSH20 0xFFFFFFFFFFFFFFFFFFFFFFFFFFFFFFFFFFFFFFFF AND PUSH20 0xFFFFFFFFFFFFFFFFFFFFFFFFFFFFFFFFFFFFFFFF AND DUP2 MSTORE PUSH1 0x20 ADD SWAP1 DUP2 MSTORE PUSH1 0x20 ADD PUSH0 KECCAK256 PUSH0 ADD PUSH0 SWAP1 SLOAD SWAP1 PUSH2 0x100 EXP SWAP1 DIV PUSH1 0xFF AND ISZERO PUSH2 0xA44 JUMPI PUSH1 0x40 MLOAD PUSH32 0x8C379A000000000000000000000000000000000000000000000000000000000 DUP2 MSTORE PUSH1 0x4 ADD PUSH2 0xA3B SWAP1 PUSH2 0x1BCD JUMP JUMPDEST PUSH1 0x40 MLOAD DUP1 SWAP2 SUB SWAP1 REVERT JUMPDEST PUSH1 0x1 PUSH1 0x2 PUSH0 DUP5 PUSH20 0xFFFFFFFFFFFFFFFFFFFFFFFFFFFFFFFFFFFFFFFF AND PUSH20 0xFFFFFFFFFFFFFFFFFFFFFFFFFFFFFFFFFFFFFFFF AND DUP2 MSTORE PUSH1 0x20 ADD SWAP1 DUP2 MSTORE PUSH1 0x20 ADD PUSH0 KECCAK256 PUSH0 ADD PUSH0 PUSH2 0x100 EXP DUP2 SLOAD DUP2 PUSH1 0xFF MUL NOT AND SWAP1 DUP4 ISZERO ISZERO MUL OR SWAP1 SSTORE POP DUP2 PUSH20 0xFFFFFFFFFFFFFFFFFFFFFFFFFFFFFFFFFFFFFFFF AND PUSH32 0xB6BE2187D059CC2A55FE29E0E503B566E1E0F8C8780096E185429350ACFFD3DD PUSH1 0x40 MLOAD PUSH1 0x40 MLOAD DUP1 SWAP2 SUB SWAP1 LOG2 POP POP JUMP JUMPDEST PUSH2 0xAEA PUSH2 0x1053 JUMP JUMPDEST PUSH1 0x1 DUP1 PUSH1 0x5 DUP2 GT ISZERO PUSH2 0xAFF JUMPI PUSH2 0xAFE PUSH2 0x1511 JUMP JUMPDEST JUMPDEST PUSH0 PUSH1 0x14 SWAP1 SLOAD SWAP1 PUSH2 0x100 EXP SWAP1 DIV PUSH1 0xFF AND PUSH1 0x5 DUP2 GT ISZERO PUSH2 0xB20 JUMPI PUSH2 0xB1F PUSH2 0x1511 JUMP JUMPDEST JUMPDEST EQ PUSH2 0xB60 JUMPI PUSH1 0x40 MLOAD PUSH32 0x8C379A000000000000000000000000000000000000000000000000000000000 DUP2 MSTORE PUSH1 0x4 ADD PUSH2 0xB57 SWAP1 PUSH2 0x169E JUMP JUMPDEST PUSH1 0x40 MLOAD DUP1 SWAP2 SUB SWAP1 REVERT JUMPDEST PUSH1 0x2 PUSH0 PUSH1 0x14 PUSH2 0x100 EXP DUP2 SLOAD DUP2 PUSH1 0xFF MUL NOT AND SWAP1 DUP4 PUSH1 0x5 DUP2 GT ISZERO PUSH2 0xB85 JUMPI PUSH2 0xB84 PUSH2 0x1511 JUMP JUMPDEST JUMPDEST MUL OR SWAP1 SSTORE POP PUSH32 0xA97A4EE45751E2ABF3E4FC8946939630B11B371EA8AE39CCDC3056E98F5CC3F PUSH1 0x1 PUSH1 0x2 PUSH1 0x40 MLOAD PUSH2 0xBBD SWAP3 SWAP2 SWAP1 PUSH2 0x1B15 JUMP JUMPDEST PUSH1 0x40 MLOAD DUP1 SWAP2 SUB SWAP1 LOG1 POP JUMP JUMPDEST PUSH2 0xBD0 PUSH2 0x1053 JUMP JUMPDEST PUSH2 0xBD9 PUSH0 PUSH2 0x10DA JUMP JUMPDEST JUMP JUMPDEST PUSH0 DUP1 PUSH0 SWAP1 SLOAD SWAP1 PUSH2 0x100 EXP SWAP1 DIV PUSH20 0xFFFFFFFFFFFFFFFFFFFFFFFFFFFFFFFFFFFFFFFF AND SWAP1 POP SWAP1 JUMP JUMPDEST PUSH0 PUSH1 0x5 DUP1 PUSH1 0x5 DUP2 GT ISZERO PUSH2 0xC18 JUMPI PUSH2 0xC17 PUSH2 0x1511 JUMP JUMPDEST JUMPDEST PUSH0 PUSH1 0x14 SWAP1 SLOAD SWAP1 PUSH2 0x100 EXP SWAP1 DIV PUSH1 0xFF AND PUSH1 0x5 DUP2 GT ISZERO PUSH2 0xC39 JUMPI PUSH2 0xC38 PUSH2 0x1511 JUMP JUMPDEST JUMPDEST EQ PUSH2 0xC79 JUMPI PUSH1 0x40 MLOAD PUSH32 0x8C379A000000000000000000000000000000000000000000000000000000000 DUP2 MSTORE PUSH1 0x4 ADD PUSH2 0xC70 SWAP1 PUSH2 0x169E JUMP JUMPDEST PUSH1 0x40 MLOAD DUP1 SWAP2 SUB SWAP1 REVERT JUMPDEST PUSH0 PUSH1 0x3 DUP1 SLOAD SWAP1 POP GT PUSH2 0xCC0 JUMPI PUSH1 0x40 MLOAD PUSH32 0x8C379A000000000000000000000000000000000000000000000000000000000 DUP2 MSTORE PUSH1 0x4 ADD PUSH2 0xCB7 SWAP1 PUSH2 0x1C35 JUMP JUMPDEST PUSH1 0x40 MLOAD DUP1 SWAP2 SUB SWAP1 REVERT JUMPDEST PUSH1 0x1 SLOAD SWAP2 POP POP SWAP1 JUMP JUMPDEST PUSH0 PUSH1 0x14 SWAP1 SLOAD SWAP1 PUSH2 0x100 EXP SWAP1 DIV PUSH1 0xFF AND DUP2 JUMP JUMPDEST PUSH1 0x2 PUSH1 0x20 MSTORE DUP1 PUSH0 MSTORE PUSH1 0x40 PUSH0 KECCAK256 PUSH0 SWAP2 POP SWAP1 POP DUP1 PUSH0 ADD PUSH0 SWAP1 SLOAD SWAP1 PUSH2 0x100 EXP SWAP1 DIV PUSH1 0xFF AND SWAP1 DUP1 PUSH0 ADD PUSH1 0x1 SWAP1 SLOAD SWAP1 PUSH2 0x100 EXP SWAP1 DIV PUSH1 0xFF AND SWAP1 DUP1 PUSH1 0x1 ADD SLOAD SWAP1 POP DUP4 JUMP JUMPDEST PUSH2 0xD21 PUSH2 0x1053 JUMP JUMPDEST PUSH1 0x3 DUP1 PUSH1 0x5 DUP2 GT ISZERO PUSH2 0xD36 JUMPI PUSH2 0xD35 PUSH2 0x1511 JUMP JUMPDEST JUMPDEST PUSH0 PUSH1 0x14 SWAP1 SLOAD SWAP1 PUSH2 0x100 EXP SWAP1 DIV PUSH1 0xFF AND PUSH1 0x5 DUP2 GT ISZERO PUSH2 0xD57 JUMPI PUSH2 0xD56 PUSH2 0x1511 JUMP JUMPDEST JUMPDEST EQ PUSH2 0xD97 JUMPI PUSH1 0x40 MLOAD PUSH32 0x8C379A000000000000000000000000000000000000000000000000000000000 DUP2 MSTORE PUSH1 0x4 ADD PUSH2 0xD8E SWAP1 PUSH2 0x169E JUMP JUMPDEST PUSH1 0x40 MLOAD DUP1 SWAP2 SUB SWAP1 REVERT JUMPDEST PUSH1 0x4 PUSH0 PUSH1 0x14 PUSH2 0x100 EXP DUP2 SLOAD DUP2 PUSH1 0xFF MUL NOT AND SWAP1 DUP4 PUSH1 0x5 DUP2 GT ISZERO PUSH2 0xDBC JUMPI PUSH2 0xDBB PUSH2 0x1511 JUMP JUMPDEST JUMPDEST MUL OR SWAP1 SSTORE POP PUSH32 0xA97A4EE45751E2ABF3E4FC8946939630B11B371EA8AE39CCDC3056E98F5CC3F PUSH1 0x3 PUSH1 0x4 PUSH1 0x40 MLOAD PUSH2 0xDF4 SWAP3 SWAP2 SWAP1 PUSH2 0x1B15 JUMP JUMPDEST PUSH1 0x40 MLOAD DUP1 SWAP2 SUB SWAP1 LOG1 POP JUMP JUMPDEST PUSH1 0x1 SLOAD DUP2 JUMP JUMPDEST PUSH2 0xE0D PUSH2 0x1053 JUMP JUMPDEST PUSH0 DUP1 PUSH1 0x5 DUP2 GT ISZERO PUSH2 0xE21 JUMPI PUSH2 0xE20 PUSH2 0x1511 JUMP JUMPDEST JUMPDEST PUSH0 PUSH1 0x14 SWAP1 SLOAD SWAP1 PUSH2 0x100 EXP SWAP1 DIV PUSH1 0xFF AND PUSH1 0x5 DUP2 GT ISZERO PUSH2 0xE42 JUMPI PUSH2 0xE41 PUSH2 0x1511 JUMP JUMPDEST JUMPDEST EQ PUSH2 0xE82 JUMPI PUSH1 0x40 MLOAD PUSH32 0x8C379A000000000000000000000000000000000000000000000000000000000 DUP2 MSTORE PUSH1 0x4 ADD PUSH2 0xE79 SWAP1 PUSH2 0x169E JUMP JUMPDEST PUSH1 0x40 MLOAD DUP1 SWAP2 SUB SWAP1 REVERT JUMPDEST PUSH1 0x1 PUSH0 PUSH1 0x14 PUSH2 0x100 EXP DUP2 SLOAD DUP2 PUSH1 0xFF MUL NOT AND SWAP1 DUP4 PUSH1 0x5 DUP2 GT ISZERO PUSH2 0xEA7 JUMPI PUSH2 0xEA6 PUSH2 0x1511 JUMP JUMPDEST JUMPDEST MUL OR SWAP1 SSTORE POP PUSH32 0xA97A4EE45751E2ABF3E4FC8946939630B11B371EA8AE39CCDC3056E98F5CC3F PUSH0 PUSH1 0x1 PUSH1 0x40 MLOAD PUSH2 0xEDE SWAP3 SWAP2 SWAP1 PUSH2 0x1B15 JUMP JUMPDEST PUSH1 0x40 MLOAD DUP1 SWAP2 SUB SWAP1 LOG1 POP JUMP JUMPDEST PUSH2 0xEF1 PUSH2 0x1053 JUMP JUMPDEST PUSH1 0x2 DUP1 PUSH1 0x5 DUP2 GT ISZERO PUSH2 0xF06 JUMPI PUSH2 0xF05 PUSH2 0x1511 JUMP JUMPDEST JUMPDEST PUSH0 PUSH1 0x14 SWAP1 SLOAD SWAP1 PUSH2 0x100 EXP SWAP1 DIV PUSH1 0xFF AND PUSH1 0x5 DUP2 GT ISZERO PUSH2 0xF27 JUMPI PUSH2 0xF26 PUSH2 0x1511 JUMP JUMPDEST JUMPDEST EQ PUSH2 0xF67 JUMPI PUSH1 0x40 MLOAD PUSH32 0x8C379A000000000000000000000000000000000000000000000000000000000 DUP2 MSTORE PUSH1 0x4 ADD PUSH2 0xF5E SWAP1 PUSH2 0x169E JUMP JUMPDEST PUSH1 0x40 MLOAD DUP1 SWAP2 SUB SWAP1 REVERT JUMPDEST PUSH1 0x3 PUSH0 PUSH1 0x14 PUSH2 0x100 EXP DUP2 SLOAD DUP2 PUSH1 0xFF MUL NOT AND SWAP1 DUP4 PUSH1 0x5 DUP2 GT ISZERO PUSH2 0xF8C JUMPI PUSH2 0xF8B PUSH2 0x1511 JUMP JUMPDEST JUMPDEST MUL OR SWAP1 SSTORE POP PUSH32 0xA97A4EE45751E2ABF3E4FC8946939630B11B371EA8AE39CCDC3056E98F5CC3F PUSH1 0x2 PUSH1 0x3 PUSH1 0x40 MLOAD PUSH2 0xFC4 SWAP3 SWAP2 SWAP1 PUSH2 0x1B15 JUMP JUMPDEST PUSH1 0x40 MLOAD DUP1 SWAP2 SUB SWAP1 LOG1 POP JUMP JUMPDEST PUSH2 0xFD7 PUSH2 0x1053 JUMP JUMPDEST PUSH0 PUSH20 0xFFFFFFFFFFFFFFFFFFFFFFFFFFFFFFFFFFFFFFFF AND DUP2 PUSH20 0xFFFFFFFFFFFFFFFFFFFFFFFFFFFFFFFFFFFFFFFF AND SUB PUSH2 0x1047 JUMPI PUSH0 PUSH1 0x40 MLOAD PUSH32 0x1E4FBDF700000000000000000000000000000000000000000000000000000000 DUP2 MSTORE PUSH1 0x4 ADD PUSH2 0x103E SWAP2 SWAP1 PUSH2 0x14DF JUMP JUMPDEST PUSH1 0x40 MLOAD DUP1 SWAP2 SUB SWAP1 REVERT JUMPDEST PUSH2 0x1050 DUP2 PUSH2 0x10DA JUMP JUMPDEST POP JUMP JUMPDEST PUSH2 0x105B PUSH2 0x119B JUMP JUMPDEST PUSH20 0xFFFFFFFFFFFFFFFFFFFFFFFFFFFFFFFFFFFFFFFF AND PUSH2 0x1079 PUSH2 0xBDB JUMP JUMPDEST PUSH20 0xFFFFFFFFFFFFFFFFFFFFFFFFFFFFFFFFFFFFFFFF AND EQ PUSH2 0x10D8 JUMPI PUSH2 0x109C PUSH2 0x119B JUMP JUMPDEST PUSH1 0x40 MLOAD PUSH32 0x118CDAA700000000000000000000000000000000000000000000000000000000 DUP2 MSTORE PUSH1 0x4 ADD PUSH2 0x10CF SWAP2 SWAP1 PUSH2 0x14DF JUMP JUMPDEST PUSH1 0x40 MLOAD DUP1 SWAP2 SUB SWAP1 REVERT JUMPDEST JUMP JUMPDEST PUSH0 DUP1 PUSH0 SWAP1 SLOAD SWAP1 PUSH2 0x100 EXP SWAP1 DIV PUSH20 0xFFFFFFFFFFFFFFFFFFFFFFFFFFFFFFFFFFFFFFFF AND SWAP1 POP DUP2 PUSH0 DUP1 PUSH2 0x100 EXP DUP2 SLOAD DUP2 PUSH20 0xFFFFFFFFFFFFFFFFFFFFFFFFFFFFFFFFFFFFFFFF MUL NOT AND SWAP1 DUP4 PUSH20 0xFFFFFFFFFFFFFFFFFFFFFFFFFFFFFFFFFFFFFFFF AND MUL OR SWAP1 SSTORE POP DUP2 PUSH20 0xFFFFFFFFFFFFFFFFFFFFFFFFFFFFFFFFFFFFFFFF AND DUP2 PUSH20 0xFFFFFFFFFFFFFFFFFFFFFFFFFFFFFFFFFFFFFFFF AND PUSH32 0x8BE0079C531659141344CD1FD0A4F28419497F9722A3DAAFE3B4186F6B6457E0 PUSH1 0x40 MLOAD PUSH1 0x40 MLOAD DUP1 SWAP2 SUB SWAP1 LOG3 POP POP JUMP JUMPDEST PUSH0 CALLER SWAP1 POP SWAP1 JUMP JUMPDEST PUSH0 PUSH1 0x40 MLOAD SWAP1 POP SWAP1 JUMP JUMPDEST PUSH0 DUP1 REVERT JUMPDEST PUSH0 DUP1 REVERT JUMPDEST PUSH0 DUP2 SWAP1 POP SWAP2 SWAP1 POP JUMP JUMPDEST PUSH2 0x11C5 DUP2 PUSH2 0x11B3 JUMP JUMPDEST DUP2 EQ PUSH2 0x11CF JUMPI PUSH0 DUP1 REVERT JUMPDEST POP JUMP JUMPDEST PUSH0 DUP2 CALLDATALOAD SWAP1 POP PUSH2 0x11E0 DUP2 PUSH2 0x11BC JUMP JUMPDEST SWAP3 SWAP2 POP POP JUMP JUMPDEST PUSH0 PUSH1 0x20 DUP3 DUP5 SUB SLT ISZERO PUSH2 0x11FB JUMPI PUSH2 0x11FA PUSH2 0x11AB JUMP JUMPDEST JUMPDEST PUSH0 PUSH2 0x1208 DUP5 DUP3 DUP6 ADD PUSH2 0x11D2 JUMP JUMPDEST SWAP2 POP POP SWAP3 SWAP2 POP POP JUMP JUMPDEST PUSH0 DUP2 MLOAD SWAP1 POP SWAP2 SWAP1 POP JUMP JUMPDEST PUSH0 DUP3 DUP3 MSTORE PUSH1 0x20 DUP3 ADD SWAP1 POP SWAP3 SWAP2 POP POP JUMP JUMPDEST PUSH0 JUMPDEST DUP4 DUP2 LT ISZERO PUSH2 0x1248 JUMPI DUP1 DUP3 ADD MLOAD DUP2 DUP5 ADD MSTORE PUSH1 0x20 DUP2 ADD SWAP1 POP PUSH2 0x122D JUMP JUMPDEST PUSH0 DUP5 DUP5 ADD MSTORE POP POP POP POP JUMP JUMPDEST PUSH0 PUSH1 0x1F NOT PUSH1 0x1F DUP4 ADD AND SWAP1 POP SWAP2 SWAP1 POP JUMP JUMPDEST PUSH0 PUSH2 0x126D DUP3 PUSH2 0x1211 JUMP JUMPDEST PUSH2 0x1277 DUP2 DUP6 PUSH2 0x121B JUMP JUMPDEST SWAP4 POP PUSH2 0x1287 DUP2 DUP6 PUSH1 0x20 DUP7 ADD PUSH2 0x122B JUMP JUMPDEST PUSH2 0x1290 DUP2 PUSH2 0x1253 JUMP JUMPDEST DUP5 ADD SWAP2 POP POP SWAP3 SWAP2 POP POP JUMP JUMPDEST PUSH2 0x12A4 DUP2 PUSH2 0x11B3 JUMP JUMPDEST DUP3 MSTORE POP POP JUMP JUMPDEST PUSH0 PUSH1 0x40 DUP3 ADD SWAP1 POP DUP2 DUP2 SUB PUSH0 DUP4 ADD MSTORE PUSH2 0x12C2 DUP2 DUP6 PUSH2 0x1263 JUMP JUMPDEST SWAP1 POP PUSH2 0x12D1 PUSH1 0x20 DUP4 ADD DUP5 PUSH2 0x129B JUMP JUMPDEST SWAP4 SWAP3 POP POP POP JUMP JUMPDEST PUSH0 DUP1 REVERT JUMPDEST PUSH0 DUP1 REVERT JUMPDEST PUSH32 0x4E487B7100000000000000000000000000000000000000000000000000000000 PUSH0 MSTORE PUSH1 0x41 PUSH1 0x4 MSTORE PUSH1 0x24 PUSH0 REVERT JUMPDEST PUSH2 0x1316 DUP3 PUSH2 0x1253 JUMP JUMPDEST DUP2 ADD DUP2 DUP2 LT PUSH8 0xFFFFFFFFFFFFFFFF DUP3 GT OR ISZERO PUSH2 0x1335 JUMPI PUSH2 0x1334 PUSH2 0x12E0 JUMP JUMPDEST JUMPDEST DUP1 PUSH1 0x40 MSTORE POP POP POP JUMP JUMPDEST PUSH0 PUSH2 0x1347 PUSH2 0x11A2 JUMP JUMPDEST SWAP1 POP PUSH2 0x1353 DUP3 DUP3 PUSH2 0x130D JUMP JUMPDEST SWAP2 SWAP1 POP JUMP JUMPDEST PUSH0 PUSH8 0xFFFFFFFFFFFFFFFF DUP3 GT ISZERO PUSH2 0x1372 JUMPI PUSH2 0x1371 PUSH2 0x12E0 JUMP JUMPDEST JUMPDEST PUSH2 0x137B DUP3 PUSH2 0x1253 JUMP JUMPDEST SWAP1 POP PUSH1 0x20 DUP2 ADD SWAP1 POP SWAP2 SWAP1 POP JUMP JUMPDEST DUP3 DUP2 DUP4 CALLDATACOPY PUSH0 DUP4 DUP4 ADD MSTORE POP POP POP JUMP JUMPDEST PUSH0 PUSH2 0x13A8 PUSH2 0x13A3 DUP5 PUSH2 0x1358 JUMP JUMPDEST PUSH2 0x133E JUMP JUMPDEST SWAP1 POP DUP3 DUP2 MSTORE PUSH1 0x20 DUP2 ADD DUP5 DUP5 DUP5 ADD GT ISZERO PUSH2 0x13C4 JUMPI PUSH2 0x13C3 PUSH2 0x12DC JUMP JUMPDEST JUMPDEST PUSH2 0x13CF DUP5 DUP3 DUP6 PUSH2 0x1388 JUMP JUMPDEST POP SWAP4 SWAP3 POP POP POP JUMP JUMPDEST PUSH0 DUP3 PUSH1 0x1F DUP4 ADD SLT PUSH2 0x13EB JUMPI PUSH2 0x13EA PUSH2 0x12D8 JUMP JUMPDEST JUMPDEST DUP2 CALLDATALOAD PUSH2 0x13FB DUP5 DUP3 PUSH1 0x20 DUP7 ADD PUSH2 0x1396 JUMP JUMPDEST SWAP2 POP POP SWAP3 SWAP2 POP POP JUMP JUMPDEST PUSH0 PUSH1 0x20 DUP3 DUP5 SUB SLT ISZERO PUSH2 0x1419 JUMPI PUSH2 0x1418 PUSH2 0x11AB JUMP JUMPDEST JUMPDEST PUSH0 DUP3 ADD CALLDATALOAD PUSH8 0xFFFFFFFFFFFFFFFF DUP2 GT ISZERO PUSH2 0x1436 JUMPI PUSH2 0x1435 PUSH2 0x11AF JUMP JUMPDEST JUMPDEST PUSH2 0x1442 DUP5 DUP3 DUP6 ADD PUSH2 0x13D7 JUMP JUMPDEST SWAP2 POP POP SWAP3 SWAP2 POP POP JUMP JUMPDEST PUSH0 PUSH20 0xFFFFFFFFFFFFFFFFFFFFFFFFFFFFFFFFFFFFFFFF DUP3 AND SWAP1 POP SWAP2 SWAP1 POP JUMP JUMPDEST PUSH0 PUSH2 0x1474 DUP3 PUSH2 0x144B JUMP JUMPDEST SWAP1 POP SWAP2 SWAP1 POP JUMP JUMPDEST PUSH2 0x1484 DUP2 PUSH2 0x146A JUMP JUMPDEST DUP2 EQ PUSH2 0x148E JUMPI PUSH0 DUP1 REVERT JUMPDEST POP JUMP JUMPDEST PUSH0 DUP2 CALLDATALOAD SWAP1 POP PUSH2 0x149F DUP2 PUSH2 0x147B JUMP JUMPDEST SWAP3 SWAP2 POP POP JUMP JUMPDEST PUSH0 PUSH1 0x20 DUP3 DUP5 SUB SLT ISZERO PUSH2 0x14BA JUMPI PUSH2 0x14B9 PUSH2 0x11AB JUMP JUMPDEST JUMPDEST PUSH0 PUSH2 0x14C7 DUP5 DUP3 DUP6 ADD PUSH2 0x1491 JUMP JUMPDEST SWAP2 POP POP SWAP3 SWAP2 POP POP JUMP JUMPDEST PUSH2 0x14D9 DUP2 PUSH2 0x146A JUMP JUMPDEST DUP3 MSTORE POP POP JUMP JUMPDEST PUSH0 PUSH1 0x20 DUP3 ADD SWAP1 POP PUSH2 0x14F2 PUSH0 DUP4 ADD DUP5 PUSH2 0x14D0 JUMP JUMPDEST SWAP3 SWAP2 POP POP JUMP JUMPDEST PUSH0 PUSH1 0x20 DUP3 ADD SWAP1 POP PUSH2 0x150B PUSH0 DUP4 ADD DUP5 PUSH2 0x129B JUMP JUMPDEST SWAP3 SWAP2 POP POP JUMP JUMPDEST PUSH32 0x4E487B7100000000000000000000000000000000000000000000000000000000 PUSH0 MSTORE PUSH1 0x21 PUSH1 0x4 MSTORE PUSH1 0x24 PUSH0 REVERT JUMPDEST PUSH1 0x6 DUP2 LT PUSH2 0x154F JUMPI PUSH2 0x154E PUSH2 0x1511 JUMP JUMPDEST JUMPDEST POP JUMP JUMPDEST PUSH0 DUP2 SWAP1 POP PUSH2 0x155F DUP3 PUSH2 0x153E JUMP JUMPDEST SWAP2 SWAP1 POP JUMP JUMPDEST PUSH0 PUSH2 0x156E DUP3 PUSH2 0x1552 JUMP JUMPDEST SWAP1 POP SWAP2 SWAP1 POP JUMP JUMPDEST PUSH2 0x157E DUP2 PUSH2 0x1564 JUMP JUMPDEST DUP3 MSTORE POP POP JUMP JUMPDEST PUSH0 PUSH1 0x20 DUP3 ADD SWAP1 POP PUSH2 0x1597 PUSH0 DUP4 ADD DUP5 PUSH2 0x1575 JUMP JUMPDEST SWAP3 SWAP2 POP POP JUMP JUMPDEST PUSH0 DUP2 ISZERO ISZERO SWAP1 POP SWAP2 SWAP1 POP JUMP JUMPDEST PUSH2 0x15B1 DUP2 PUSH2 0x159D JUMP JUMPDEST DUP3 MSTORE POP POP JUMP JUMPDEST PUSH0 PUSH1 0x60 DUP3 ADD SWAP1 POP PUSH2 0x15CA PUSH0 DUP4 ADD DUP7 PUSH2 0x15A8 JUMP JUMPDEST PUSH2 0x15D7 PUSH1 0x20 DUP4 ADD DUP6 PUSH2 0x15A8 JUMP JUMPDEST PUSH2 0x15E4 PUSH1 0x40 DUP4 ADD DUP5 PUSH2 0x129B JUMP JUMPDEST SWAP5 SWAP4 POP POP POP POP JUMP JUMPDEST PUSH32 0x596F7520617265206E6F742061207265676973746572656420766F7465720000 PUSH0 DUP3 ADD MSTORE POP JUMP JUMPDEST PUSH0 PUSH2 0x1620 PUSH1 0x1E DUP4 PUSH2 0x121B JUMP JUMPDEST SWAP2 POP PUSH2 0x162B DUP3 PUSH2 0x15EC JUMP JUMPDEST PUSH1 0x20 DUP3 ADD SWAP1 POP SWAP2 SWAP1 POP JUMP JUMPDEST PUSH0 PUSH1 0x20 DUP3 ADD SWAP1 POP DUP2 DUP2 SUB PUSH0 DUP4 ADD MSTORE PUSH2 0x164D DUP2 PUSH2 0x1614 JUMP JUMPDEST SWAP1 POP SWAP2 SWAP1 POP JUMP JUMPDEST PUSH32 0x496E76616C696420776F726B666C6F7720737461746500000000000000000000 PUSH0 DUP3 ADD MSTORE POP JUMP JUMPDEST PUSH0 PUSH2 0x1688 PUSH1 0x16 DUP4 PUSH2 0x121B JUMP JUMPDEST SWAP2 POP PUSH2 0x1693 DUP3 PUSH2 0x1654 JUMP JUMPDEST PUSH1 0x20 DUP3 ADD SWAP1 POP SWAP2 SWAP1 POP JUMP JUMPDEST PUSH0 PUSH1 0x20 DUP3 ADD SWAP1 POP DUP2 DUP2 SUB PUSH0 DUP4 ADD MSTORE PUSH2 0x16B5 DUP2 PUSH2 0x167C JUMP JUMPDEST SWAP1 POP SWAP2 SWAP1 POP JUMP JUMPDEST PUSH32 0x596F75206861766520616C726561647920766F74656400000000000000000000 PUSH0 DUP3 ADD MSTORE POP JUMP JUMPDEST PUSH0 PUSH2 0x16F0 PUSH1 0x16 DUP4 PUSH2 0x121B JUMP JUMPDEST SWAP2 POP PUSH2 0x16FB DUP3 PUSH2 0x16BC JUMP JUMPDEST PUSH1 0x20 DUP3 ADD SWAP1 POP SWAP2 SWAP1 POP JUMP JUMPDEST PUSH0 PUSH1 0x20 DUP3 ADD SWAP1 POP DUP2 DUP2 SUB PUSH0 DUP4 ADD MSTORE PUSH2 0x171D DUP2 PUSH2 0x16E4 JUMP JUMPDEST SWAP1 POP SWAP2 SWAP1 POP JUMP JUMPDEST PUSH32 0x496E76616C69642070726F706F73616C20494400000000000000000000000000 PUSH0 DUP3 ADD MSTORE POP JUMP JUMPDEST PUSH0 PUSH2 0x1758 PUSH1 0x13 DUP4 PUSH2 0x121B JUMP JUMPDEST SWAP2 POP PUSH2 0x1763 DUP3 PUSH2 0x1724 JUMP JUMPDEST PUSH1 0x20 DUP3 ADD SWAP1 POP SWAP2 SWAP1 POP JUMP JUMPDEST PUSH0 PUSH1 0x20 DUP3 ADD SWAP1 POP DUP2 DUP2 SUB PUSH0 DUP4 ADD MSTORE PUSH2 0x1785 DUP2 PUSH2 0x174C JUMP JUMPDEST SWAP1 POP SWAP2 SWAP1 POP JUMP JUMPDEST PUSH32 0x4E487B7100000000000000000000000000000000000000000000000000000000 PUSH0 MSTORE PUSH1 0x32 PUSH1 0x4 MSTORE PUSH1 0x24 PUSH0 REVERT JUMPDEST PUSH32 0x4E487B7100000000000000000000000000000000000000000000000000000000 PUSH0 MSTORE PUSH1 0x11 PUSH1 0x4 MSTORE PUSH1 0x24 PUSH0 REVERT JUMPDEST PUSH0 PUSH2 0x17F0 DUP3 PUSH2 0x11B3 JUMP JUMPDEST SWAP2 POP PUSH2 0x17FB DUP4 PUSH2 0x11B3 JUMP JUMPDEST SWAP3 POP DUP3 DUP3 ADD SWAP1 POP DUP1 DUP3 GT ISZERO PUSH2 0x1813 JUMPI PUSH2 0x1812 PUSH2 0x17B9 JUMP JUMPDEST JUMPDEST SWAP3 SWAP2 POP POP JUMP JUMPDEST PUSH32 0x4E487B7100000000000000000000000000000000000000000000000000000000 PUSH0 MSTORE PUSH1 0x22 PUSH1 0x4 MSTORE PUSH1 0x24 PUSH0 REVERT JUMPDEST PUSH0 PUSH1 0x2 DUP3 DIV SWAP1 POP PUSH1 0x1 DUP3 AND DUP1 PUSH2 0x185D JUMPI PUSH1 0x7F DUP3 AND SWAP2 POP JUMPDEST PUSH1 0x20 DUP3 LT DUP2 SUB PUSH2 0x1870 JUMPI PUSH2 0x186F PUSH2 0x1819 JUMP JUMPDEST JUMPDEST POP SWAP2 SWAP1 POP JUMP JUMPDEST PUSH0 DUP2 SWAP1 POP DUP2 PUSH0 MSTORE PUSH1 0x20 PUSH0 KECCAK256 SWAP1 POP SWAP2 SWAP1 POP JUMP JUMPDEST PUSH0 PUSH1 0x20 PUSH1 0x1F DUP4 ADD DIV SWAP1 POP SWAP2 SWAP1 POP JUMP JUMPDEST PUSH0 DUP3 DUP3 SHL SWAP1 POP SWAP3 SWAP2 POP POP JUMP JUMPDEST PUSH0 PUSH1 0x8 DUP4 MUL PUSH2 0x18D2 PUSH32 0xFFFFFFFFFFFFFFFFFFFFFFFFFFFFFFFFFFFFFFFFFFFFFFFFFFFFFFFFFFFFFFFF DUP3 PUSH2 0x1897 JUMP JUMPDEST PUSH2 0x18DC DUP7 DUP4 PUSH2 0x1897 JUMP JUMPDEST SWAP6 POP DUP1 NOT DUP5 AND SWAP4 POP DUP1 DUP7 AND DUP5 OR SWAP3 POP POP POP SWAP4 SWAP3 POP POP POP JUMP JUMPDEST PUSH0 DUP2 SWAP1 POP SWAP2 SWAP1 POP JUMP JUMPDEST PUSH0 PUSH2 0x1917 PUSH2 0x1912 PUSH2 0x190D DUP5 PUSH2 0x11B3 JUMP JUMPDEST PUSH2 0x18F4 JUMP JUMPDEST PUSH2 0x11B3 JUMP JUMPDEST SWAP1 POP SWAP2 SWAP1 POP JUMP JUMPDEST PUSH0 DUP2 SWAP1 POP SWAP2 SWAP1 POP JUMP JUMPDEST PUSH2 0x1930 DUP4 PUSH2 0x18FD JUMP JUMPDEST PUSH2 0x1944 PUSH2 0x193C DUP3 PUSH2 0x191E JUMP JUMPDEST DUP5 DUP5 SLOAD PUSH2 0x18A3 JUMP JUMPDEST DUP3 SSTORE POP POP POP POP JUMP JUMPDEST PUSH0 SWAP1 JUMP JUMPDEST PUSH2 0x1958 PUSH2 0x194C JUMP JUMPDEST PUSH2 0x1963 DUP2 DUP5 DUP5 PUSH2 0x1927 JUMP JUMPDEST POP POP POP JUMP JUMPDEST JUMPDEST DUP2 DUP2 LT ISZERO PUSH2 0x1986 JUMPI PUSH2 0x197B PUSH0 DUP3 PUSH2 0x1950 JUMP JUMPDEST PUSH1 0x1 DUP2 ADD SWAP1 POP PUSH2 0x1969 JUMP JUMPDEST POP POP JUMP JUMPDEST PUSH1 0x1F DUP3 GT ISZERO PUSH2 0x19CB JUMPI PUSH2 0x199C DUP2 PUSH2 0x1876 JUMP JUMPDEST PUSH2 0x19A5 DUP5 PUSH2 0x1888 JUMP JUMPDEST DUP2 ADD PUSH1 0x20 DUP6 LT ISZERO PUSH2 0x19B4 JUMPI DUP2 SWAP1 POP JUMPDEST PUSH2 0x19C8 PUSH2 0x19C0 DUP6 PUSH2 0x1888 JUMP JUMPDEST DUP4 ADD DUP3 PUSH2 0x1968 JUMP JUMPDEST POP POP JUMPDEST POP POP POP JUMP JUMPDEST PUSH0 DUP3 DUP3 SHR SWAP1 POP SWAP3 SWAP2 POP POP JUMP JUMPDEST PUSH0 PUSH2 0x19EB PUSH0 NOT DUP5 PUSH1 0x8 MUL PUSH2 0x19D0 JUMP JUMPDEST NOT DUP1 DUP4 AND SWAP2 POP POP SWAP3 SWAP2 POP POP JUMP JUMPDEST PUSH0 PUSH2 0x1A03 DUP4 DUP4 PUSH2 0x19DC JUMP JUMPDEST SWAP2 POP DUP3 PUSH1 0x2 MUL DUP3 OR SWAP1 POP SWAP3 SWAP2 POP POP JUMP JUMPDEST PUSH2 0x1A1C DUP3 PUSH2 0x1211 JUMP JUMPDEST PUSH8 0xFFFFFFFFFFFFFFFF DUP2 GT ISZERO PUSH2 0x1A35 JUMPI PUSH2 0x1A34 PUSH2 0x12E0 JUMP JUMPDEST JUMPDEST PUSH2 0x1A3F DUP3 SLOAD PUSH2 0x1846 JUMP JUMPDEST PUSH2 0x1A4A DUP3 DUP3 DUP6 PUSH2 0x198A JUMP JUMPDEST PUSH0 PUSH1 0x20 SWAP1 POP PUSH1 0x1F DUP4 GT PUSH1 0x1 DUP2 EQ PUSH2 0x1A7B JUMPI PUSH0 DUP5 ISZERO PUSH2 0x1A69 JUMPI DUP3 DUP8 ADD MLOAD SWAP1 POP JUMPDEST PUSH2 0x1A73 DUP6 DUP3 PUSH2 0x19F8 JUMP JUMPDEST DUP7 SSTORE POP PUSH2 0x1ADA JUMP JUMPDEST PUSH1 0x1F NOT DUP5 AND PUSH2 0x1A89 DUP7 PUSH2 0x1876 JUMP JUMPDEST PUSH0 JUMPDEST DUP3 DUP2 LT ISZERO PUSH2 0x1AB0 JUMPI DUP5 DUP10 ADD MLOAD DUP3 SSTORE PUSH1 0x1 DUP3 ADD SWAP2 POP PUSH1 0x20 DUP6 ADD SWAP5 POP PUSH1 0x20 DUP2 ADD SWAP1 POP PUSH2 0x1A8B JUMP JUMPDEST DUP7 DUP4 LT ISZERO PUSH2 0x1ACD JUMPI DUP5 DUP10 ADD MLOAD PUSH2 0x1AC9 PUSH1 0x1F DUP10 AND DUP3 PUSH2 0x19DC JUMP JUMPDEST DUP4 SSTORE POP JUMPDEST PUSH1 0x1 PUSH1 0x2 DUP9 MUL ADD DUP9 SSTORE POP POP POP JUMPDEST POP POP POP POP POP POP JUMP JUMPDEST PUSH0 PUSH2 0x1AEC DUP3 PUSH2 0x11B3 JUMP JUMPDEST SWAP2 POP PUSH2 0x1AF7 DUP4 PUSH2 0x11B3 JUMP JUMPDEST SWAP3 POP DUP3 DUP3 SUB SWAP1 POP DUP2 DUP2 GT ISZERO PUSH2 0x1B0F JUMPI PUSH2 0x1B0E PUSH2 0x17B9 JUMP JUMPDEST JUMPDEST SWAP3 SWAP2 POP POP JUMP JUMPDEST PUSH0 PUSH1 0x40 DUP3 ADD SWAP1 POP PUSH2 0x1B28 PUSH0 DUP4 ADD DUP6 PUSH2 0x1575 JUMP JUMPDEST PUSH2 0x1B35 PUSH1 0x20 DUP4 ADD DUP5 PUSH2 0x1575 JUMP JUMPDEST SWAP4 SWAP3 POP POP POP JUMP JUMPDEST PUSH0 PUSH2 0x1B46 DUP3 PUSH2 0x11B3 JUMP JUMPDEST SWAP2 POP PUSH32 0xFFFFFFFFFFFFFFFFFFFFFFFFFFFFFFFFFFFFFFFFFFFFFFFFFFFFFFFFFFFFFFFF DUP3 SUB PUSH2 0x1B78 JUMPI PUSH2 0x1B77 PUSH2 0x17B9 JUMP JUMPDEST JUMPDEST PUSH1 0x1 DUP3 ADD SWAP1 POP SWAP2 SWAP1 POP JUMP JUMPDEST PUSH32 0x566F74657220616C726561647920726567697374657265640000000000000000 PUSH0 DUP3 ADD MSTORE POP JUMP JUMPDEST PUSH0 PUSH2 0x1BB7 PUSH1 0x18 DUP4 PUSH2 0x121B JUMP JUMPDEST SWAP2 POP PUSH2 0x1BC2 DUP3 PUSH2 0x1B83 JUMP JUMPDEST PUSH1 0x20 DUP3 ADD SWAP1 POP SWAP2 SWAP1 POP JUMP JUMPDEST PUSH0 PUSH1 0x20 DUP3 ADD SWAP1 POP DUP2 DUP2 SUB PUSH0 DUP4 ADD MSTORE PUSH2 0x1BE4 DUP2 PUSH2 0x1BAB JUMP JUMPDEST SWAP1 POP SWAP2 SWAP1 POP JUMP JUMPDEST PUSH32 0x4E6F2070726F706F73616C7320617661696C61626C6500000000000000000000 PUSH0 DUP3 ADD MSTORE POP JUMP JUMPDEST PUSH0 PUSH2 0x1C1F PUSH1 0x16 DUP4 PUSH2 0x121B JUMP JUMPDEST SWAP2 POP PUSH2 0x1C2A DUP3 PUSH2 0x1BEB JUMP JUMPDEST PUSH1 0x20 DUP3 ADD SWAP1 POP SWAP2 SWAP1 POP JUMP JUMPDEST PUSH0 PUSH1 0x20 DUP3 ADD SWAP1 POP DUP2 DUP2 SUB PUSH0 DUP4 ADD MSTORE PUSH2 0x1C4C DUP2 PUSH2 0x1C13 JUMP JUMPDEST SWAP1 POP SWAP2 SWAP1 POP JUMP INVALID LOG2 PUSH5 0x6970667358 0x22 SLT KECCAK256 0x27 0xB4 SWAP14 DUP15 0xAF DUP2 KECCAK256 0xE6 0xEA 0xAA RETURNDATASIZE POP 0x27 0xB4 AND 0xC2 POP 0xC 0xE9 STOP 0xE7 CODECOPY 0xF7 SWAP11 CALLER SLT AND 0xAE 0xB9 0xD EXTCODECOPY SWAP13 PUSH5 0x736F6C6343 STOP ADDMOD ISZERO STOP CALLER "
		},
		"gasEstimates": {
			"creation": {
				"codeDepositCost": "1461000",
				"executionCost": "infinite",
				"totalCost": "infinite"
			},
			"external": {
				"endProposalsRegistration()": "infinite",
				"endVotingSession()": "infinite",
				"getWinner()": "6850",
				"owner()": "2604",
				"proposals(uint256)": "infinite",
				"registerVoter(address)": "infinite",
				"renounceOwnership()": "infinite",
				"startProposalsRegistration()": "infinite",
				"startVotingSession()": "infinite",
				"submitProposal(string)": "infinite",
				"tallyVotes()": "infinite",
				"transferOwnership(address)": "infinite",
				"vote(uint256)": "infinite",
				"voters(address)": "infinite",
				"winningProposalId()": "2447",
				"workflowStatus()": "2649"
			}
		},
		"methodIdentifiers": {
			"endProposalsRegistration()": "6c297445",
			"endVotingSession()": "a7bfab16",
			"getWinner()": "8e7ea5b2",
			"owner()": "8da5cb5b",
			"proposals(uint256)": "013cf08b",
			"registerVoter(address)": "38db6dd3",
			"renounceOwnership()": "715018a6",
			"startProposalsRegistration()": "e09b8c79",
			"startVotingSession()": "ee74c678",
			"submitProposal(string)": "373d6d5e",
			"tallyVotes()": "378a2178",
			"transferOwnership(address)": "f2fde38b",
			"vote(uint256)": "0121b93f",
			"voters(address)": "a3ec138d",
			"winningProposalId()": "c64963c5",
			"workflowStatus()": "a1edffa2"
		}
	},
	"abi": [
		{
			"inputs": [],
			"stateMutability": "nonpayable",
			"type": "constructor"
		},
		{
			"inputs": [
				{
					"internalType": "address",
					"name": "owner",
					"type": "address"
				}
			],
			"name": "OwnableInvalidOwner",
			"type": "error"
		},
		{
			"inputs": [
				{
					"internalType": "address",
					"name": "account",
					"type": "address"
				}
			],
			"name": "OwnableUnauthorizedAccount",
			"type": "error"
		},
		{
			"anonymous": false,
			"inputs": [
				{
					"indexed": true,
					"internalType": "address",
					"name": "previousOwner",
					"type": "address"
				},
				{
					"indexed": true,
					"internalType": "address",
					"name": "newOwner",
					"type": "address"
				}
			],
			"name": "OwnershipTransferred",
			"type": "event"
		},
		{
			"anonymous": false,
			"inputs": [
				{
					"indexed": true,
					"internalType": "uint256",
					"name": "proposalId",
					"type": "uint256"
				}
			],
			"name": "ProposalRegistered",
			"type": "event"
		},
		{
			"anonymous": false,
			"inputs": [
				{
					"indexed": true,
					"internalType": "address",
					"name": "voter",
					"type": "address"
				},
				{
					"indexed": true,
					"internalType": "uint256",
					"name": "proposalId",
					"type": "uint256"
				}
			],
			"name": "Voted",
			"type": "event"
		},
		{
			"anonymous": false,
			"inputs": [
				{
					"indexed": true,
					"internalType": "address",
					"name": "voterAddress",
					"type": "address"
				}
			],
			"name": "VoterRegistered",
			"type": "event"
		},
		{
			"anonymous": false,
			"inputs": [
				{
					"indexed": false,
					"internalType": "enum Voting.WorkflowStatus",
					"name": "previousStatus",
					"type": "uint8"
				},
				{
					"indexed": false,
					"internalType": "enum Voting.WorkflowStatus",
					"name": "newStatus",
					"type": "uint8"
				}
			],
			"name": "WorkflowStatusChange",
			"type": "event"
		},
		{
			"inputs": [],
			"name": "endProposalsRegistration",
			"outputs": [],
			"stateMutability": "nonpayable",
			"type": "function"
		},
		{
			"inputs": [],
			"name": "endVotingSession",
			"outputs": [],
			"stateMutability": "nonpayable",
			"type": "function"
		},
		{
			"inputs": [],
			"name": "getWinner",
			"outputs": [
				{
					"internalType": "uint256",
					"name": "",
					"type": "uint256"
				}
			],
			"stateMutability": "view",
			"type": "function"
		},
		{
			"inputs": [],
			"name": "owner",
			"outputs": [
				{
					"internalType": "address",
					"name": "",
					"type": "address"
				}
			],
			"stateMutability": "view",
			"type": "function"
		},
		{
			"inputs": [
				{
					"internalType": "uint256",
					"name": "",
					"type": "uint256"
				}
			],
			"name": "proposals",
			"outputs": [
				{
					"internalType": "string",
					"name": "description",
					"type": "string"
				},
				{
					"internalType": "uint256",
					"name": "voteCount",
					"type": "uint256"
				}
			],
			"stateMutability": "view",
			"type": "function"
		},
		{
			"inputs": [
				{
					"internalType": "address",
					"name": "_voter",
					"type": "address"
				}
			],
			"name": "registerVoter",
			"outputs": [],
			"stateMutability": "nonpayable",
			"type": "function"
		},
		{
			"inputs": [],
			"name": "renounceOwnership",
			"outputs": [],
			"stateMutability": "nonpayable",
			"type": "function"
		},
		{
			"inputs": [],
			"name": "startProposalsRegistration",
			"outputs": [],
			"stateMutability": "nonpayable",
			"type": "function"
		},
		{
			"inputs": [],
			"name": "startVotingSession",
			"outputs": [],
			"stateMutability": "nonpayable",
			"type": "function"
		},
		{
			"inputs": [
				{
					"internalType": "string",
					"name": "_description",
					"type": "string"
				}
			],
			"name": "submitProposal",
			"outputs": [],
			"stateMutability": "nonpayable",
			"type": "function"
		},
		{
			"inputs": [],
			"name": "tallyVotes",
			"outputs": [],
			"stateMutability": "nonpayable",
			"type": "function"
		},
		{
			"inputs": [
				{
					"internalType": "address",
					"name": "newOwner",
					"type": "address"
				}
			],
			"name": "transferOwnership",
			"outputs": [],
			"stateMutability": "nonpayable",
			"type": "function"
		},
		{
			"inputs": [
				{
					"internalType": "uint256",
					"name": "_proposalId",
					"type": "uint256"
				}
			],
			"name": "vote",
			"outputs": [],
			"stateMutability": "nonpayable",
			"type": "function"
		},
		{
			"inputs": [
				{
					"internalType": "address",
					"name": "",
					"type": "address"
				}
			],
			"name": "voters",
			"outputs": [
				{
					"internalType": "bool",
					"name": "isRegistered",
					"type": "bool"
				},
				{
					"internalType": "bool",
					"name": "hasVoted",
					"type": "bool"
				},
				{
					"internalType": "uint256",
					"name": "votedProposalId",
					"type": "uint256"
				}
			],
			"stateMutability": "view",
			"type": "function"
		},
		{
			"inputs": [],
			"name": "winningProposalId",
			"outputs": [
				{
					"internalType": "uint256",
					"name": "",
					"type": "uint256"
				}
			],
			"stateMutability": "view",
			"type": "function"
		},
		{
			"inputs": [],
			"name": "workflowStatus",
			"outputs": [
				{
					"internalType": "enum Voting.WorkflowStatus",
					"name": "",
					"type": "uint8"
				}
			],
			"stateMutability": "view",
			"type": "function"
		}
	]
}